{
  "_format": "hh-sol-artifact-1",
  "contractName": "TokenCreator",
  "sourceName": "contracts/TokenCreator.sol",
  "abi": [
    {
      "anonymous": false,
      "inputs": [
        {
          "indexed": false,
          "internalType": "contract SimpleToken",
          "name": "SimpleToken",
          "type": "address"
        },
        {
          "indexed": false,
          "internalType": "address",
          "name": "owner",
          "type": "address"
        },
        {
          "indexed": false,
          "internalType": "uint256",
          "name": "initialSupply",
          "type": "uint256"
        },
        {
          "indexed": false,
          "internalType": "string",
          "name": "name",
          "type": "string"
        },
        {
          "indexed": false,
          "internalType": "string",
          "name": "symbol",
          "type": "string"
        }
      ],
      "name": "CreatedSimpleToken",
      "type": "event"
    },
    {
      "anonymous": false,
      "inputs": [
        {
          "indexed": true,
          "internalType": "address",
          "name": "previousOwner",
          "type": "address"
        },
        {
          "indexed": true,
          "internalType": "address",
          "name": "newOwner",
          "type": "address"
        }
      ],
      "name": "OwnershipTransferred",
      "type": "event"
    },
    {
      "inputs": [
        {
          "internalType": "uint256",
          "name": "initialSupply",
          "type": "uint256"
        },
        {
          "internalType": "string",
          "name": "name",
          "type": "string"
        },
        {
          "internalType": "string",
          "name": "symbol",
          "type": "string"
        }
      ],
      "name": "createSimpleToken",
      "outputs": [],
      "stateMutability": "nonpayable",
      "type": "function"
    },
    {
      "inputs": [
        {
          "internalType": "address",
          "name": "owner",
          "type": "address"
        }
      ],
      "name": "getTokensOfOwner",
      "outputs": [
        {
          "components": [
            {
              "internalType": "string",
              "name": "name",
              "type": "string"
            },
            {
              "internalType": "bytes32",
              "name": "factory",
              "type": "bytes32"
            },
            {
              "internalType": "address",
              "name": "tokenAddress",
              "type": "address"
            }
          ],
          "internalType": "struct Token[]",
          "name": "contracts",
          "type": "tuple[]"
        }
      ],
      "stateMutability": "view",
      "type": "function"
    },
    {
      "inputs": [],
      "name": "owner",
      "outputs": [
        {
          "internalType": "address",
          "name": "",
          "type": "address"
        }
      ],
      "stateMutability": "view",
      "type": "function"
    },
    {
      "inputs": [],
      "name": "renounceOwnership",
      "outputs": [],
      "stateMutability": "nonpayable",
      "type": "function"
    },
    {
      "inputs": [
        {
          "internalType": "address",
          "name": "",
          "type": "address"
        },
        {
          "internalType": "uint256",
          "name": "",
          "type": "uint256"
        }
      ],
      "name": "tokensOfOwner",
      "outputs": [
        {
          "internalType": "string",
          "name": "name",
          "type": "string"
        },
        {
          "internalType": "bytes32",
          "name": "factory",
          "type": "bytes32"
        },
        {
          "internalType": "address",
          "name": "tokenAddress",
          "type": "address"
        }
      ],
      "stateMutability": "view",
      "type": "function"
    },
    {
      "inputs": [
        {
          "internalType": "address",
          "name": "newOwner",
          "type": "address"
        }
      ],
      "name": "transferOwnership",
      "outputs": [],
      "stateMutability": "nonpayable",
      "type": "function"
    }
  ],
  "bytecode": "0x608060405234801561001057600080fd5b5061001a3361001f565b61006f565b600080546001600160a01b038381166001600160a01b0319831681178455604051919092169283917f8be0079c531659141344cd1fd0a4f28419497f9722a3daafe3b4186f6b6457e09190a35050565b6116f88061007e6000396000f3fe60806040523480156200001157600080fd5b50600436106200006a5760003560e01c80635de6dc55146200006f57806368c179d0146200009e578063715018a614620000c65780638da5cb5b14620000d2578063b8a765ea14620000ee578063f2fde38b1462000105575b600080fd5b6200008662000080366004620006bb565b6200011c565b60405162000095919062000730565b60405180910390f35b620000b5620000af366004620007be565b62000250565b6040516200009593929190620007eb565b620000d062000332565b005b6000546040516001600160a01b03909116815260200162000095565b620000d0620000ff366004620008cb565b620003a0565b620000d062000116366004620006bb565b620004c9565b6001600160a01b0381166000908152600260209081526040808320805482518185028101850190935280835260609492939192909184015b828210156200024557838290600052602060002090600302016040518060600160405290816000820180546200018a906200093f565b80601f0160208091040260200160405190810160405280929190818152602001828054620001b8906200093f565b8015620002095780601f10620001dd5761010080835404028352916020019162000209565b820191906000526020600020905b815481529060010190602001808311620001eb57829003601f168201915b50505091835250506001828101546020808401919091526002909301546001600160a01b03166040909201919091529183529201910162000154565b505050509050919050565b600260205281600052604060002081815481106200026d57600080fd5b90600052602060002090600302016000915091505080600001805462000293906200093f565b80601f0160208091040260200160405190810160405280929190818152602001828054620002c1906200093f565b8015620003125780601f10620002e65761010080835404028352916020019162000312565b820191906000526020600020905b815481529060010190602001808311620002f457829003601f168201915b5050505060018301546002909301549192916001600160a01b0316905083565b6000546001600160a01b03163314620003925760405162461bcd60e51b815260206004820181905260248201527f4f776e61626c653a2063616c6c6572206973206e6f7420746865206f776e657260448201526064015b60405180910390fd5b6200039e60006200059a565b565b600033848484604051620003b490620005ea565b620003c394939291906200097c565b604051809103906000f080158015620003e0573d6000803e3d6000fd5b5033600090815260026020908152604080832081516060810183528881526a29b4b6b83632aa37b5b2b760a91b818501526001600160a01b0386169281019290925280546001810182559084529282902081518051959650919460039094020192620004509284920190620005f8565b5060208201516001820155604091820151600290910180546001600160a01b0319166001600160a01b03909216919091179055517f36a87ad2165a536412a943aae5b54adcd38a12757284647fc34e308b78443bfd90620004bb9083903390889088908890620009c4565b60405180910390a150505050565b6000546001600160a01b03163314620005255760405162461bcd60e51b815260206004820181905260248201527f4f776e61626c653a2063616c6c6572206973206e6f7420746865206f776e6572604482015260640162000389565b6001600160a01b0381166200058c5760405162461bcd60e51b815260206004820152602660248201527f4f776e61626c653a206e6577206f776e657220697320746865207a65726f206160448201526564647265737360d01b606482015260840162000389565b62000597816200059a565b50565b600080546001600160a01b038381166001600160a01b0319831681178455604051919092169283917f8be0079c531659141344cd1fd0a4f28419497f9722a3daafe3b4186f6b6457e09190a35050565b610ca98062000a1a83390190565b82805462000606906200093f565b90600052602060002090601f0160209004810192826200062a576000855562000675565b82601f106200064557805160ff191683800117855562000675565b8280016001018555821562000675579182015b828111156200067557825182559160200191906001019062000658565b506200068392915062000687565b5090565b5b8082111562000683576000815560010162000688565b80356001600160a01b0381168114620006b657600080fd5b919050565b600060208284031215620006ce57600080fd5b620006d9826200069e565b9392505050565b6000815180845260005b818110156200070857602081850181015186830182015201620006ea565b818111156200071b576000602083870101525b50601f01601f19169290920160200192915050565b60006020808301818452808551808352604092508286019150828160051b87010184880160005b83811015620007b057603f198984030185528151606081518186526200078082870182620006e0565b838b0151878c0152928901516001600160a01b031695890195909552509487019492509086019060010162000757565b509098975050505050505050565b60008060408385031215620007d257600080fd5b620007dd836200069e565b946020939093013593505050565b606081526000620008006060830186620006e0565b6020830194909452506001600160a01b0391909116604090910152919050565b634e487b7160e01b600052604160045260246000fd5b600082601f8301126200084857600080fd5b813567ffffffffffffffff8082111562000866576200086662000820565b604051601f8301601f19908116603f0116810190828211818310171562000891576200089162000820565b81604052838152866020858801011115620008ab57600080fd5b836020870160208301376000602085830101528094505050505092915050565b600080600060608486031215620008e157600080fd5b83359250602084013567ffffffffffffffff808211156200090157600080fd5b6200090f8783880162000836565b935060408601359150808211156200092657600080fd5b50620009358682870162000836565b9150509250925092565b600181811c908216806200095457607f821691505b602082108114156200097657634e487b7160e01b600052602260045260246000fd5b50919050565b60018060a01b0385168152836020820152608060408201526000620009a56080830185620006e0565b8281036060840152620009b98185620006e0565b979650505050505050565b6001600160a01b038681168252851660208201526040810184905260a060608201819052600090620009f990830185620006e0565b828103608084015262000a0d8185620006e0565b9897505050505050505056fe60806040523480156200001157600080fd5b5060405162000ca938038062000ca98339810160408190526200003491620002dd565b8151829082906200004d9060039060208501906200016a565b508051620000639060049060208401906200016a565b5050506200007884846200008260201b60201c565b50505050620003d5565b6001600160a01b038216620000dd5760405162461bcd60e51b815260206004820152601f60248201527f45524332303a206d696e7420746f20746865207a65726f206164647265737300604482015260640160405180910390fd5b8060026000828254620000f1919062000371565b90915550506001600160a01b038216600090815260208190526040812080548392906200012090849062000371565b90915550506040518181526001600160a01b038316906000907fddf252ad1be2c89b69c2b068fc378daa952ba7f163c4a11628f55a4df523b3ef9060200160405180910390a35050565b828054620001789062000398565b90600052602060002090601f0160209004810192826200019c5760008555620001e7565b82601f10620001b757805160ff1916838001178555620001e7565b82800160010185558215620001e7579182015b82811115620001e7578251825591602001919060010190620001ca565b50620001f5929150620001f9565b5090565b5b80821115620001f55760008155600101620001fa565b634e487b7160e01b600052604160045260246000fd5b600082601f8301126200023857600080fd5b81516001600160401b038082111562000255576200025562000210565b604051601f8301601f19908116603f0116810190828211818310171562000280576200028062000210565b816040528381526020925086838588010111156200029d57600080fd5b600091505b83821015620002c15785820183015181830184015290820190620002a2565b83821115620002d35760008385830101525b9695505050505050565b60008060008060808587031215620002f457600080fd5b84516001600160a01b03811681146200030c57600080fd5b6020860151604087015191955093506001600160401b03808211156200033157600080fd5b6200033f8883890162000226565b935060608701519150808211156200035657600080fd5b50620003658782880162000226565b91505092959194509250565b600082198211156200039357634e487b7160e01b600052601160045260246000fd5b500190565b600181811c90821680620003ad57607f821691505b60208210811415620003cf57634e487b7160e01b600052602260045260246000fd5b50919050565b6108c480620003e56000396000f3fe608060405234801561001057600080fd5b50600436106100a95760003560e01c80633950935111610071578063395093511461012357806370a082311461013657806395d89b411461015f578063a457c2d714610167578063a9059cbb1461017a578063dd62ed3e1461018d57600080fd5b806306fdde03146100ae578063095ea7b3146100cc57806318160ddd146100ef57806323b872dd14610101578063313ce56714610114575b600080fd5b6100b66101c6565b6040516100c39190610701565b60405180910390f35b6100df6100da366004610772565b610258565b60405190151581526020016100c3565b6002545b6040519081526020016100c3565b6100df61010f36600461079c565b61026e565b604051601281526020016100c3565b6100df610131366004610772565b61031d565b6100f36101443660046107d8565b6001600160a01b031660009081526020819052604090205490565b6100b6610359565b6100df610175366004610772565b610368565b6100df610188366004610772565b610401565b6100f361019b3660046107fa565b6001600160a01b03918216600090815260016020908152604080832093909416825291909152205490565b6060600380546101d59061082d565b80601f01602080910402602001604051908101604052809291908181526020018280546102019061082d565b801561024e5780601f106102235761010080835404028352916020019161024e565b820191906000526020600020905b81548152906001019060200180831161023157829003601f168201915b5050505050905090565b600061026533848461040e565b50600192915050565b600061027b848484610532565b6001600160a01b0384166000908152600160209081526040808320338452909152902054828110156103055760405162461bcd60e51b815260206004820152602860248201527f45524332303a207472616e7366657220616d6f756e74206578636565647320616044820152676c6c6f77616e636560c01b60648201526084015b60405180910390fd5b610312853385840361040e565b506001949350505050565b3360008181526001602090815260408083206001600160a01b03871684529091528120549091610265918590610354908690610868565b61040e565b6060600480546101d59061082d565b3360009081526001602090815260408083206001600160a01b0386168452909152812054828110156103ea5760405162461bcd60e51b815260206004820152602560248201527f45524332303a2064656372656173656420616c6c6f77616e63652062656c6f77604482015264207a65726f60d81b60648201526084016102fc565b6103f7338585840361040e565b5060019392505050565b6000610265338484610532565b6001600160a01b0383166104705760405162461bcd60e51b8152602060048201526024808201527f45524332303a20617070726f76652066726f6d20746865207a65726f206164646044820152637265737360e01b60648201526084016102fc565b6001600160a01b0382166104d15760405162461bcd60e51b815260206004820152602260248201527f45524332303a20617070726f766520746f20746865207a65726f206164647265604482015261737360f01b60648201526084016102fc565b6001600160a01b0383811660008181526001602090815260408083209487168084529482529182902085905590518481527f8c5be1e5ebec7d5bd14f71427d1e84f3dd0314c0f7b2291e5b200ac8c7c3b925910160405180910390a3505050565b6001600160a01b0383166105965760405162461bcd60e51b815260206004820152602560248201527f45524332303a207472616e736665722066726f6d20746865207a65726f206164604482015264647265737360d81b60648201526084016102fc565b6001600160a01b0382166105f85760405162461bcd60e51b815260206004820152602360248201527f45524332303a207472616e7366657220746f20746865207a65726f206164647260448201526265737360e81b60648201526084016102fc565b6001600160a01b038316600090815260208190526040902054818110156106705760405162461bcd60e51b815260206004820152602660248201527f45524332303a207472616e7366657220616d6f756e7420657863656564732062604482015265616c616e636560d01b60648201526084016102fc565b6001600160a01b038085166000908152602081905260408082208585039055918516815290812080548492906106a7908490610868565b92505081905550826001600160a01b0316846001600160a01b03167fddf252ad1be2c89b69c2b068fc378daa952ba7f163c4a11628f55a4df523b3ef846040516106f391815260200190565b60405180910390a350505050565b600060208083528351808285015260005b8181101561072e57858101830151858201604001528201610712565b81811115610740576000604083870101525b50601f01601f1916929092016040019392505050565b80356001600160a01b038116811461076d57600080fd5b919050565b6000806040838503121561078557600080fd5b61078e83610756565b946020939093013593505050565b6000806000606084860312156107b157600080fd5b6107ba84610756565b92506107c860208501610756565b9150604084013590509250925092565b6000602082840312156107ea57600080fd5b6107f382610756565b9392505050565b6000806040838503121561080d57600080fd5b61081683610756565b915061082460208401610756565b90509250929050565b600181811c9082168061084157607f821691505b6020821081141561086257634e487b7160e01b600052602260045260246000fd5b50919050565b6000821982111561088957634e487b7160e01b600052601160045260246000fd5b50019056fea2646970667358221220c3ed14375930222658e1220a979ffbdf2559f6e668758637ae862b8b6dbaba5364736f6c634300080a0033a2646970667358221220001537e6cee62169b53cc86b58f14cceaf577d1f6ac59d7635f0cee03c918e1464736f6c634300080a0033",
  "linkReferences": {},
  "deployedLinkReferences": {}
}